:04000000FEEFFFF020
:1020000000000B0E3318D8A408EF10F00AEF10F000
:102010001BEF10F025C035F026C036F086EC11F02D
:102020003550286E6000A3F0CDFF020ECA6E0C0E74
:10203000336ED9EF10F00C0E3318D8A422EF10F045
:1020400024EF10F035EF10F023C035F024C036F047
:1020500086EC11F03550286E6000A3F0CDFF010E24
:10206000CA6E0B0E336ED9EF10F0150E3318D8A4CC
:102070003CEF10F03EEF10F04FEF10F021C035F0C4
:1020800022C036F086EC11F03550286E6000A3F0C7
:10209000CDFF020ECA6E160E336ED9EF10F0160E7B
:1020A0003318D8A456EF10F058EF10F069EF10F085
:1020B0001FC035F020C036F086EC11F03550286E88
:1020C0006000A3F0CDFF010ECA6E150E336ED9EF7E
:1020D00010F01F0E3318D8A470EF10F072EF10F04C
:1020E0008DEF10F017C035F018C036F086EC11F007
:1020F0003550286E6000A3F0CDFF080ECA6E200E8A
:10210000336E2704D8A487EF10F089EF10F0D9EFD1
:1021100010F0CD28CD6ED9EF10F0200E3318D8A4D2
:1021200094EF10F096EF10F0A7EF10F015C035F017
:1021300016C036F086EC11F03550286E6000A3F022
:10214000CDFF040ECA6E210E336ED9EF10F0210EB2
:102150003318D8A4AEEF10F0B0EF10F0C1EF10F0CC
:1021600013C035F014C036F086EC11F03550286EEF
:102170006000A3F0CDFF020ECA6E220E336ED9EFBF
:1021800010F0220E3318D8A4C8EF10F0CAEF10F0E8
:10219000D9EF10F011C035F012C036F086EC11F016
:1021A0003550286E6000A3F0CDFF010ECA6E1F0EE1
:1021B000336E12003F01CB6A3F01BB6A3A01506B9C
:1021C0003F01F00EC36E3F01CD6A3F01BD6A3A0187
:1021D000706B3F01000EC56E3F01CA6A3F01BA6ACB
:1021E0003A01406B3F01000EC26EF00E3A01516F92
:1021F00005500610D8A4FFEF10F001EF11F071EFB9
:1022000011F00B0E3418D8A408EF11F00AEF11F0FA
:102210000EEF11F010EC15F071EF11F00C0E3418F8
:10222000D8A415EF11F017EF11F01BEF11F0CBEC64
:1022300013F071EF11F00D0E3418D8A422EF11F045
:1022400024EF11F028EF11F024EC14F071EF11F0ED
:10225000150E3418D8A42FEF11F031EF11F035EF2F
:1022600011F0D1EC14F071EF11F0160E3418D8A45F
:102270003CEF11F03EEF11F042EF11F0A3EC12F041
:1022800071EF11F0170E3418D8A449EF11F04BEF8D
:1022900011F04FEF11F006EC13F071EF11F01E0E7C
:1022A0003418D8A456EF11F058EF11F05AEF11F08E
:1022B000ECEC15F01F0E3418D8A461EF11F063EFA9
:1022C00011F067EF11F007EC16F071EF11F03450D8
:1022D000D8A46DEF11F06FEF11F071EF11F0D1ECA8
:1022E00015F005500610D8B478EF11F07AEF11F020
:1022F00080EF11F0FF0E0524056EFF0E0620066E1E
:1023000001EC10F0F8EF10F0FEEFFFF03550361052
:10231000D8A48DEF11F08FEF11F095EF11F0000EB2
:10232000366EFC0E356E22EF12F035043610D8A44E
:102330009CEF11F09EEF11F0A4EF11F0000E366E3D
:10234000600E356E22EF12F0020E35183610D8A44A
:10235000ACEF11F0AEEF11F0B4EF11F0000E366EED
:10236000DA0E356E22EF12F0030E35183610D8A4AF
:10237000BCEF11F0BEEF11F0C4EF11F0000E366E9D
:10238000F20E356E22EF12F0040E35183610D8A476
:10239000CCEF11F0CEEF11F0D4EF11F0000E366E4D
:1023A000660E356E22EF12F0050E35183610D8A4E1
:1023B000DCEF11F0DEEF11F0E4EF11F0000E366EFD
:1023C000B60E356E22EF12F0060E35183610D8A470
:1023D000ECEF11F0EEEF11F0F4EF11F0000E366EAD
:1023E000BE0E356E22EF12F0070E35183610D8A447
:1023F000FCEF11F0FEEF11F004EF12F0000E366E5C
:10240000E00E356E22EF12F0080E35183610D8A403
:102410000CEF12F00EEF12F014EF12F0000E366E09
:10242000FE0E356E22EF12F0090E35183610D8A4C4
:102430001CEF12F01EEF12F022EF12F0000E366EBB
:10244000E60E356E1200000E386E040E3A6E6F0006
:102450002CFF39F0F00E391A3950D8A432EF12F0AF
:1024600034EF12F039EF12F035683668A2EF12F04F
:10247000382AD89039363950D8A441EF12F043EFBA
:1024800012F038EF12F0FE0ECB6EFE0ECB18D8B461
:102490004CEF12F04EEF12F052EF12F0000E3A6EC7
:1024A0007DEF12F0FD0ECB6EFD0ECB18D8B45BEFB6
:1024B00012F05DEF12F061EF12F0010E3A6E7DEF57
:1024C00012F0FB0ECB6EFB0ECB18D8B46AEF12F0F5
:1024D0006CEF12F070EF12F0020E3A6E7DEF12F018
:1024E000F70ECB6EF70ECB18D8B479EF12F07BEF66
:1024F00012F07DEF12F0030E3A6EF00ECB6EF00E7E
:10250000CB18D8A486EF12F088EF12F07DEF12F00E
:10251000040E3A608EEF12F090EF12F034EF12F0EA
:102520003850020D6F00CCFF37F03A50080DF350D1
:10253000600F3724D96EDA6A6F0078FF35F06F00CC
:1025400074FF36F0120023EC12F035C003F036C0F1
:1025500004F0032806E10428D8A4B1EF12F0B3EF89
:1025600012F0B5EF12F005EF13F004BEC1EF12F058
:10257000045009E10A0E035CD8A0C1EF12F0C3EFCA
:1025800012F0E9EF12F00E0E03180410D8A4CBEFEE
:1025900012F0CDEF12F005EF13F021C03BF022C096
:1025A0003CF01FC03DF020C03EF020EC16F03BC0D8
:1025B0001BF03CC01CF04FEC15F07DEC14F01E0E2F
:1025C000346E1F0E336E000E066E030E056E05EFA1
:1025D00013F004BEF7EF12F0045007E10A0E035C9B
:1025E000D8B0F5EF12F0F7EF12F005EF13F0170E79
:1025F000346E03C01FF004C020F01FC009F020C0DB
:102600000AF0000E066E030E056E120023EC12F0A7
:1026100035C003F036C004F0032806E10428D8A42E
:1026200014EF13F016EF13F018EF13F068EF13F038
:1026300004BE24EF13F0045009E10A0E035CD8A095
:1026400024EF13F026EF13F04CEF13F00E0E0318E7
:102650000410D8A42EEF13F030EF13F068EF13F04E
:1026600021C03BF022C03CF01FC03DF020C03EF036
:1026700020EC16F03BC01BF03CC01CF04FEC15F0FA
:102680007DEC14F01E0E346E1F0E336E000E066EBF
:10269000030E056E68EF13F004BE5AEF13F00450FA
:1026A00007E10A0E035CD8B058EF13F05AEF13F0AD
:1026B00068EF13F0160E346E03C021F004C022F050
:1026C00021C00BF022C00CF0000E066E030E056E4A
:1026D0001200000E3A6E38BE72EF13F070EF13F076
:1026E00078EF13F0376C381ED8B0382A010E3A6EE6
:1026F00036BE7FEF13F07DEF13F085EF13F0356CEE
:10270000361ED8B0362A010E3A1A000E3C6E000E64
:102710003B6E37503810D8B490EF13F092EF13F0AF
:10272000BAEF13F0010E396E9AEF13F0D8903736E6
:102730003836392A38AE9FEF13F0A1EF13F096EF39
:1027400013F0D8903B363C363750355C385036580D
:10275000D8A0ADEF13F0AFEF13F0B4EF13F0375094
:10276000355E3850365A3B80D89038323732392E61
:10277000A1EF13F03A50D8B4C0EF13F0C2EF13F04A
:10278000C6EF13F03B6C3C1ED8B03C2A3BC035F082
:102790003CC036F0120023EC12F035C003F036C016
:1027A00004F0032806E10428D8A4D9EF13F0DBEFE6
:1027B00013F0DDEF13F023EF14F004BEE9EF13F094
:1027C000045009E10A0E035CD8A0E9EF13F0EBEF27
:1027D00013F007EF14F025C03BF026C03CF023C0F7
:1027E0003DF024C03EF020EC16F03BC01DF03CC094
:1027F0001EF003C007F004C008F0150E346E150E6D
:10280000336E000E066E030E056E23EF14F004BE49
:1028100015EF14F0045007E10A0E035CD8B013EF73
:1028200014F015EF14F023EF14F00D0E346E03C006
:1028300023F004C024F023C00DF024C00EF0000EDD
:10284000066E030E056E120023EC12F035C003F085
:1028500036C004F0032806E10428D8A432EF14F0AF
:1028600034EF14F036EF14F07CEF14F004BE42EFB6
:1028700014F0045009E10A0E035CD8A042EF14F0F2
:1028800044EF14F060EF14F025C03BF026C03CF09C
:1028900023C03DF024C03EF020EC16F03BC01DF0FC
:1028A0003CC01EF003C007F004C008F0150E346EE3
:1028B000150E336E000E066E030E056E7CEF14F0DF
:1028C00004BE6EEF14F0045007E10A0E035CD8B0AA
:1028D0006CEF14F06EEF14F07CEF14F00C0E346E0D
:1028E00003C025F004C026F025C00FF026C010F06C
:1028F000000E066E030E056E1200FF0E1924196EEF
:10290000FF0E1A201A6E010E1124116E000E1220F5
:10291000126E0A0E11181210D8A491EF14F093EF52
:1029200014F0C5EF14F0000E126E000E116E010EC1
:102930001324136E000E1420146E0A0E13181410B4
:10294000D8A4A5EF14F0A7EF14F0C5EF14F0000E13
:10295000146E000E136E010E1524156E000E162057
:10296000166E0A0E15181610D8A4B9EF14F0BBEFA6
:1029700014F0C5EF14F0000E166E000E156E010E69
:102980001724176E000E1820186E19501A10D8B49C
:10299000CCEF14F0CEEF14F0D0EF14F07DEF14F084
:1029A000120023EC12F035C003F036C004F0032807
:1029B00006E10428D8A4DFEF14F0E1EF14F0E3EF10
:1029C00014F00FEF15F004BEEFEF14F0045009E11E
:1029D0000A0E035CD8A0EFEF14F0F1EF14F0F3EF60
:1029E00014F00FEF15F004BE01EF15F0045007E1ED
:1029F0000A0E035CD8B0FFEF14F001EF15F00FEFF3
:102A000015F0160E346E03C021F004C022F021C070
:102A10000FF022C010F0000E066E030E056E1200BD
:102A200023EC12F035C003F036C004F0032806E1B1
:102A30000428D8A41EEF15F020EF15F022EF15F0B2
:102A40004EEF15F004BE2EEF15F0045009E10A0E0A
:102A5000035CD8A02EEF15F030EF15F032EF15F033
:102A60004EEF15F004BE40EF15F0045007E10A0EDA
:102A7000035CD8B03EEF15F040EF15F04EEF15F0C7
:102A80000C0E346E03C025F004C026F025C00FF0F4
:102A900026C010F0000E066E030E056E12000A0E20
:102AA00007180810D8A457EF15F059EF15F05DEF8F
:102AB00015F078EC16F085EF15F00B0E07180810DE
:102AC000D8A465EF15F067EF15F06BEF15F0B1ECDA
:102AD00015F085EF15F00C0E07180810D8A473EF49
:102AE00015F075EF15F079EF15F05AEC16F085EF4B
:102AF00015F00D0E07180810D8A481EF15F083EF1C
:102B000015F085EF15F069EC16F01200940EF66ED4
:102B10002C0EF76E000EF86E00EE60F010EE20F056
:102B200009006F00D7FFEEFFE550E150F9E1FE0E1E
:102B3000F66E2C0EF76E000EF86E00EE29F010EE19
:102B40000CF009006F00D7FFEEFFE550E150F9E10E
:102B500000EE01F0280EEE6AE806FDE10001DAEF72
:102B600010F01B501D5C1E50800A356E1C50800AF0
:102B70003558D8A0BEEF15F0C0EF15F0C8EF15F02E
:102B80001B501D5C196E1C501E581A6ED0EF15F0AC
:102B90001D501B5C196E1E501C581A6E010E276EBC
:102BA0001200000E1A6E000E196E000E186E000E46
:102BB000176E000E166E000E156E000E146E000ECF
:102BC000136E000E126E000E116E000E276E0B0EAD
:102BD000346E0B0E336E1200000E266E000E256E44
:102BE000000E246E000E236E000E226E000E216E6B
:102BF000000E206E000E1F6E000E1E6E000E1D6E6B
:102C0000000E1C6E000E1B6E1F0E346E120023ECA5
:102C100012F035C003F036C004F0032806E10428A2
:102C2000D8A415EF16F017EF16F019EF16F01FEFF6
:102C300016F0000E346E000E066E030E056E1200C6
:102C40003BC035F03CC036F0000E386E0A0E376ED1
:102C500035EC16F03D5035243F6E3E503620406E28
:102C60003FC03BF040C03CF01200355037026F00CF
:102C7000CCFF39F06F00D0FF3AF035503802F350F6
:102C80003A2636503702F3503A2639C035F03AC06A
:102C900036F012000100020003000A0004000500E3
:102CA00006000B000700080009000C000F000000E0
:102CB0000E000D001DC035F01EC036F01BC037F0F1
:102CC0001CC038F035EC16F035C019F036C01AF0DB
:102CD00012001DC035F01EC036F01BC037F01CC0FE
:102CE00038F069EC13F035C019F036C01AF0120054
:102CF0001B501D24196E1C501E201A6E1200E6FE79
:0A2D0000E0BEB666F2DA60FC0B0BD1
:020000040001F9
:04FFFC0086EF15F087
:020000040030CA
:0A000000F8FFFFFF9FFFFFFFFFFF67
:00000001FF
